:100000000C942A000C9447000C9447000C94470071
:100010000C9447000C9447000C9447000C94470044
:100020000C9447000C9447000C94D8040C9447009F
:100030000C9447000C9447000C9447000C94470024
:100040000C9447000C9447000C9447000C94470014
:100050000C94470011241FBECFE5D8E0DEBFCDBF12
:1000600010E0A0E6B0E0EEE3FDE002C005900D92E6
:10007000A236B107D9F710E0A2E6B0E001C01D92A8
:10008000A83BB107E1F70E9451060C949D060C9421
:100090000000DF93CF9300D0CDB7DEB789836A83AA
:1000A0008A81813009F070C089818830A0F4ABE387
:1000B000B0E0EBE3F0E08081482F8981282F30E029
:1000C00081E090E0022E02C0880F991F0A94E2F7A7
:1000D000842B8C93CEC089818830D0F08981803187
:1000E000B8F4A8E3B0E0E8E3F0E08081482F89812C
:1000F000882F90E09C012850304081E090E0022E53
:1001000002C0880F991F0A94E2F7842B8C93B1C028
:1001100089818031D0F089818831B8F4A5E3B0E0DD
:10012000E5E3F0E08081482F8981882F90E09C01F1
:100130002051304081E090E0022E02C0880F991FCC
:100140000A94E2F7842B8C9394C08981883108F457
:1001500090C08981803208F08CC0A2E3B0E0E2E375
:10016000F0E08081482F8981882F90E09C01285100
:10017000304081E090E0022E02C0880F991F0A945F
:10018000E2F7842B8C9375C08A81882309F071C0B3
:1001900089818830A8F4ABE3B0E0EBE3F0E0808144
:1001A000482F8981282F30E081E090E0022E02C0A4
:1001B000880F991F0A94E2F7809584238C9359C085
:1001C00089818830D8F089818031C0F4A8E3B0E01B
:1001D000E8E3F0E08081482F8981882F90E09C013E
:1001E0002850304081E090E0022E02C0880F991F15
:1001F0000A94E2F7809584238C933BC089818031F7
:10020000D8F089818831C0F4A5E3B0E0E5E3F0E0FF
:100210008081482F8981882F90E09C0120513040B7
:1002200081E090E0022E02C0880F991F0A94E2F745
:10023000809584238C931DC089818831D0F0898179
:100240008032B8F4A2E3B0E0E2E3F0E08081482F2E
:100250008981882F90E09C012851304081E090E016
:10026000022E02C0880F991F0A94E2F7809584231A
:100270008C930F900F90CF91DF910895DF93CF93E0
:1002800000D0CDB7DEB78A838A81883090F4E9E365
:10029000F0E08081482F8A81282F30E081E090E0D3
:1002A000022E02C0880F991F0A94E2F784238983E3
:1002B00050C08A818830C0F08A818031A8F4E6E39A
:1002C000F0E08081482F8A81882F90E09C0128509F
:1002D000304081E090E0022E02C0880F991F0A94FE
:1002E000E2F78423898335C08A818031C0F08A8116
:1002F0008831A8F4E3E3F0E08081482F8A81882FD9
:1003000090E09C012051304081E090E0022E02C03C
:10031000880F991F0A94E2F7842389831AC08A817F
:100320008831B8F08A818032A0F4E0E3F0E0808187
:10033000482F8A81882F90E09C012851304081E02D
:1003400090E0022E02C0880F991F0A94E2F78423DE
:10035000898389810F900F90CF91DF910895DF936A
:10036000CF9300D0CDB7DEB789836A838A8181308D
:1003700009F070C089818830A0F4AAE3B0E0EAE314
:10038000F0E08081482F8981282F30E081E090E0E3
:10039000022E02C0880F991F0A94E2F7842B8C93D7
:1003A000CEC089818830D0F089818031B8F4A7E34C
:1003B000B0E0E7E3F0E08081482F8981882F90E06A
:1003C0009C012850304081E090E0022E02C0880F4E
:1003D000991F0A94E2F7842B8C93B1C089818031F4
:1003E000D0F089818831B8F4A4E3B0E0E4E3F0E030
:1003F0008081482F8981882F90E09C0120513040D6
:1004000081E090E0022E02C0880F991F0A94E2F763
:10041000842B8C9394C08981883108F490C08981A1
:10042000803208F08CC0A4E3B0E0E4E3F0E0808127
:10043000482F8981882F90E09C012851304081E02D
:1004400090E0022E02C0880F991F0A94E2F7842BD5
:100450008C9375C08A81882309F071C089818830A6
:10046000A8F4ABE3B0E0EBE3F0E08081482F8981B2
:10047000282F30E081E090E0022E02C0880F991F03
:100480000A94E2F7809584238C9359C0898188303F
:10049000D8F089818031C0F4A7E3B0E0E7E3F0E071
:1004A0008081482F8981882F90E09C01285030401E
:1004B00081E090E0022E02C0880F991F0A94E2F7B3
:1004C000809584238C933BC089818031D8F08981C9
:1004D0008831C0F4A4E3B0E0E4E3F0E08081482F89
:1004E0008981882F90E09C012051304081E090E08C
:1004F000022E02C0880F991F0A94E2F78095842388
:100500008C931DC089818831D0F089818032B8F404
:10051000A1E3B0E0E1E3F0E08081482F8981882FFA
:1005200090E09C012851304081E090E0022E02C012
:10053000880F991F0A94E2F7809584238C930F907B
:100540000F90CF91DF910895DF93CF930F92CDB7A6
:10055000DEB70E94AF050E940B05809160000E94EB
:10056000260584E494E00E94120619823BC089812A
:10057000882F90E0880F991F880F991F880F991F67
:10058000FC01E859FF4F118210828981882F90E089
:10059000880F991F880F991F880F991FFC01E35935
:1005A000FF4F10828981882F90E0880F991F880F54
:1005B000991F880F991FFC01E559FF4F1182108286
:1005C0008981882F90E0880F991F880F991F0196C5
:1005D000880F991FFC01E859FF4F82E080838981D1
:1005E0008F5F898389818A3010F20F90CF91DF91DC
:1005F0000895DF93CF93CDB7DEB728970FB6F89461
:10060000DEBF0FBECDBF9B838A836C835E834D8329
:1006100038872F83809162008A3008F059C080911A
:100620006200882F90E0880F991F880F991F880F0C
:10063000991FFC01E859FF4F8A819B819183808338
:1006400080916200882F90E0880F991F880F991F72
:10065000880F991FFC01E359FF4F8C8180838091A3
:100660006200882F90E0880F991F880F991F880FCC
:10067000991FFC01E559FF4F8D819E8191838083F5
:1006800080916200882F90E0880F991F880F991F32
:100690000196880F991FFC01E859FF4F82E0808383
:1006A00080916200882F90E0880F991F880F991F12
:1006B000880F991FFC01E259FF4F8F819885918324
:1006C0008083809162008F5F80936200198202C0F4
:1006D00081E08983898128960FB6F894DEBF0FBE2A
:1006E000CDBFCF91DF910895DF93CF9300D000D09D
:1006F000CDB7DEB79C838B8381E089831A825EC08D
:100700008A81882F90E0880F991F880F991F880F82
:10071000991FFC01E859FF4F208131818B819C8119
:100720002817390709F047C08A81882F90E0880F81
:10073000991F880F991F880F991FFC01E859FF4FD7
:10074000118210828A81882F90E0880F991F880F6C
:10075000991F880F991FFC01E359FF4F10828A816E
:10076000882F90E0880F991F880F991F880F991F75
:10077000FC01E559FF4F118210828A81882F90E099
:10078000880F991F880F991F0196880F991FFC01E8
:10079000E859FF4F83E080838A81882F90E0880F9B
:1007A000991F880F991F880F991FFC01E259FF4F6D
:1007B0001182108219828A818F5F8A8390916200F0
:1007C0008A81891708F49CCF89810F900F900F9030
:1007D0000F90CF91DF910895DF93CF9300D0CDB7E5
:1007E000DEB71A824AC08A81882F90E0880F991F4D
:1007F000880F991F0196880F991FFC01E859FF4F38
:1008000080818823B9F5198232C08A81882F90E0CF
:10081000880F991F880F991F880F991FFC01E359B2
:10082000FF4F908189819817F9F48A81882F90E091
:10083000880F991F880F991F0196880F991FFC0137
:10084000E859FF4F81E080838A81882F90E0880FEC
:10085000991F880F991F880F991FFC01E859FF4FB6
:100860000190F081E02D099589818F5F89838981CD
:100870008B3058F28A818F5F8A83909162008A81DF
:10088000891708F4B0CFADCFDF93CF930F92CDB7D8
:10089000DEB719827AC08981882F90E0880F991F6E
:1008A000880F991F880F991FFC01E259FF4F208183
:1008B000318180916400909165002817390709F013
:1008C00052C08981482F50E08981882F90E0880F9D
:1008D000991F880F991F880F991FFC01E559FF4F39
:1008E000208131818091640090916500280F391F2B
:1008F000CA01880F991F880F991F880F991FFC0143
:10090000E259FF4F318320838981882F90E0880F3F
:10091000991F880F991F0196880F991FFC01E859AC
:10092000FF4F10828981882F90E0880F991F880FD0
:10093000991F880F991FFC01E359FF4F9081809107
:1009400063008917F8F48981882F90E0880F991F38
:10095000880F991F880F991FFC01E359FF4F808171
:10096000809363000FC08981882F90E0880F991FC2
:10097000880F991F0196880F991FFC01E859FF4FB6
:1009800082E0808389818F5F898390916200898171
:10099000891708F480CF80916400909165000196DA
:1009A00090936500809364000F90CF91DF9108953C
:1009B0001F920F920FB60F9211242F933F934F93D4
:1009C0005F936F937F938F939F93AF93BF93EF93B7
:1009D000FF93DF93CF93CDB7DEB780916600909100
:1009E0006700009729F0E0916600F0916700099593
:1009F000CF91DF91FF91EF91BF91AF919F918F9137
:100A00007F916F915F914F913F912F910F900FBE0A
:100A10000F901F901895DF93CF93CDB7DEB7E3E526
:100A2000F0E01082E2E5F0E01082A9E5B0E0E9E54F
:100A3000F0E0808182608C93A3E5B0E0E3E5F0E034
:100A400080818C608C93CF91DF910895DF93CF9359
:100A500000D00F92CDB7DEB789838981282F30E08F
:100A60003B832A838A819B8184309105C9F12A8145
:100A70003B812530310584F48A819B818230910548
:100A800029F12A813B81233031052CF58A819B8114
:100A900081309105B1F03DC02A813B81263031057E
:100AA00049F18A819B8186309105FCF02A813B8146
:100AB0002730310521F18A819B818830910521F110
:100AC00028C0ECE5F0E08FE1808327C0ECE5F0E0A2
:100AD0008EE3808322C0ECE5F0E08EE580831DC0CC
:100AE000ECE5F0E08DE7808318C0ECE5F0E08CE900
:100AF000808313C0ECE5F0E08BEB80830EC0ECE567
:100B0000F0E08BED808309C0ECE5F0E08AEF8083B4
:100B100004C0ECE5F0E08AEF80830F900F900F9017
:100B2000CF91DF910895DF93CF93CDB7DEB7A3E5E3
:100B3000B0E0E3E5F0E080818E7F8C93A3E5B0E048
:100B4000E3E5F0E080818D7F8C93A3E5B0E0E3E501
:100B5000F0E080818B7F8C93CF91DF910895DF93BC
:100B6000CF93CDB7DEB7AFE5B0E0EFE5F0E0808141
:100B700080688C93CF91DF910895DF93CF93CDB7A9
:100B8000DEB7AFE5B0E0EFE5F0E080818F778C93E2
:100B9000CF91DF910895DF93CF93CDB7DEB728973C
:100BA0000FB6F894DEBF0FBECDBF6D837E838F83FB
:100BB0009887E2E5F0E0108219821A821B821C827B
:100BC0001BC0E8E5F0E08081882F90E08270907093
:100BD0000097B9F3A8E5B0E0E8E5F0E08081826035
:100BE0008C9389819A81AB81BC810196A11DB11D35
:100BF00089839A83AB83BC8329813A814B815C8151
:100C00008D819E81AF81B885281739074A075B0718
:100C1000C0F228960FB6F894DEBF0FBECDBFCF91BD
:100C2000DF910895DF93CF9300D0CDB7DEB79A83DD
:100C3000898389819A8190936700809366000F90E1
:100C40000F90CF91DF910895DF93CF93CDB7DEB7AB
:100C5000A8E3B0E0E8E3F0E0908180E189278C939D
:100C6000CF91DF910895DF93CF93CDB7DEB7A8E39F
:100C7000B0E0E8E3F0E0908180E289278C93CF91A7
:100C8000DF910895DF93CF93CDB7DEB7A8E3B0E04F
:100C9000E8E3F0E0908180E489278C93CF91DF91A5
:100CA0000895DF93CF93CDB7DEB78CE061E00E946B
:100CB000AF018DE061E00E94AF018EE061E00E9433
:100CC000AF018FE061E00E94AF0180E061E00E942F
:100CD000AF0181E061E00E94AF018CE060E00E9422
:100CE00049008DE060E00E9449008EE060E00E94D3
:100CF00049000E94A40284E296E061E048EE53E0DD
:100D000028EE33E00E94F90283E396E062E040EDD2
:100D100057E020ED37E00E94F90282E496E063E0BC
:100D200048EB5BE028EB3BE00E94F9020E94EC03F9
:0E0D300080E090E0CF91DF910895F894FFCF1E
:020D3E000100B2
:00000001FF
